{
  "contractName": "Token",
  "abi": [
    {
      "constant": true,
      "inputs": [],
      "name": "name",
      "outputs": [
        {
          "name": "",
          "type": "string"
        }
      ],
      "payable": false,
      "stateMutability": "view",
      "type": "function"
    },
    {
      "constant": true,
      "inputs": [],
      "name": "decimals",
      "outputs": [
        {
          "name": "",
          "type": "uint256"
        }
      ],
      "payable": false,
      "stateMutability": "view",
      "type": "function"
    },
    {
      "anonymous": false,
      "inputs": [
        {
          "indexed": true,
          "name": "_from",
          "type": "address"
        },
        {
          "indexed": true,
          "name": "_to",
          "type": "address"
        },
        {
          "indexed": false,
          "name": "_value",
          "type": "uint256"
        }
      ],
      "name": "Transfer",
      "type": "event"
    },
    {
      "anonymous": false,
      "inputs": [
        {
          "indexed": true,
          "name": "_owner",
          "type": "address"
        },
        {
          "indexed": true,
          "name": "_spender",
          "type": "address"
        },
        {
          "indexed": false,
          "name": "_value",
          "type": "uint256"
        }
      ],
      "name": "Approval",
      "type": "event"
    },
    {
      "constant": true,
      "inputs": [],
      "name": "totalSupply",
      "outputs": [
        {
          "name": "supply",
          "type": "uint256"
        }
      ],
      "payable": false,
      "stateMutability": "view",
      "type": "function"
    },
    {
      "constant": true,
      "inputs": [
        {
          "name": "_owner",
          "type": "address"
        }
      ],
      "name": "balanceOf",
      "outputs": [
        {
          "name": "balance",
          "type": "uint256"
        }
      ],
      "payable": false,
      "stateMutability": "view",
      "type": "function"
    },
    {
      "constant": false,
      "inputs": [
        {
          "name": "_to",
          "type": "address"
        },
        {
          "name": "_value",
          "type": "uint256"
        }
      ],
      "name": "transfer",
      "outputs": [
        {
          "name": "success",
          "type": "bool"
        }
      ],
      "payable": false,
      "stateMutability": "nonpayable",
      "type": "function"
    },
    {
      "constant": false,
      "inputs": [
        {
          "name": "_from",
          "type": "address"
        },
        {
          "name": "_to",
          "type": "address"
        },
        {
          "name": "_value",
          "type": "uint256"
        }
      ],
      "name": "transferFrom",
      "outputs": [
        {
          "name": "success",
          "type": "bool"
        }
      ],
      "payable": false,
      "stateMutability": "nonpayable",
      "type": "function"
    },
    {
      "constant": false,
      "inputs": [
        {
          "name": "_spender",
          "type": "address"
        },
        {
          "name": "_value",
          "type": "uint256"
        }
      ],
      "name": "approve",
      "outputs": [
        {
          "name": "success",
          "type": "bool"
        }
      ],
      "payable": false,
      "stateMutability": "nonpayable",
      "type": "function"
    },
    {
      "constant": true,
      "inputs": [
        {
          "name": "_owner",
          "type": "address"
        },
        {
          "name": "_spender",
          "type": "address"
        }
      ],
      "name": "allowance",
      "outputs": [
        {
          "name": "remaining",
          "type": "uint256"
        }
      ],
      "payable": false,
      "stateMutability": "view",
      "type": "function"
    }
  ],
  "bytecode": "0x608060405234801561001057600080fd5b50610311806100206000396000f30060806040526004361061008d5763ffffffff7c010000000000000000000000000000000000000000000000000000000060003504166306fdde038114610092578063095ea7b31461011c57806318160ddd1461016157806323b872dd14610188578063313ce567146101bf57806370a08231146101d4578063a9059cbb1461011c578063dd62ed3e14610202575b600080fd5b34801561009e57600080fd5b506100a7610236565b6040805160208082528351818301528351919283929083019185019080838360005b838110156100e15781810151838201526020016100c9565b50505050905090810190601f16801561010e5780820380516001836020036101000a031916815260200191505b509250505060405180910390f35b34801561012857600080fd5b5061014d73ffffffffffffffffffffffffffffffffffffffff600435166024356102c3565b604080519115158252519081900360200190f35b34801561016d57600080fd5b506101766102cb565b60408051918252519081900360200190f35b34801561019457600080fd5b5061014d73ffffffffffffffffffffffffffffffffffffffff600435811690602435166044356102d0565b3480156101cb57600080fd5b506101766102d9565b3480156101e057600080fd5b5061017673ffffffffffffffffffffffffffffffffffffffff600435166102df565b34801561020e57600080fd5b5061017673ffffffffffffffffffffffffffffffffffffffff600435811690602435166102c3565b60018054604080516020600284861615610100026000190190941693909304601f810184900484028201840190925281815292918301828280156102bb5780601f10610290576101008083540402835291602001916102bb565b820191906000526020600020905b81548152906001019060200180831161029e57829003601f168201915b505050505081565b600092915050565b600090565b60009392505050565b60005481565b506000905600a165627a7a723058200f488b4d72112595173e6a14f2fe7eec49cef87f29b2ca4c3d5d6d288a6ceacd0029",
  "source": "pragma solidity ^0.4.23;\r\n\r\ncontract Token {\r\n  /// @return total amount of tokens\r\n  function totalSupply() public view returns (uint256 supply) {}\r\n\r\n  /// @param _owner The address from which the balance will be retrieved\r\n  /// @return The balance\r\n  function balanceOf(address _owner) public view returns (uint256 balance) {}\r\n\r\n  /// @notice send `_value` token to `_to` from `msg.sender`\r\n  /// @param _to The address of the recipient\r\n  /// @param _value The amount of token to be transferred\r\n  /// @return Whether the transfer was successful or not\r\n  function transfer(address _to, uint256 _value) public returns (bool success) {}\r\n\r\n  /// @notice send `_value` token to `_to` from `_from` on the condition it is approved by `_from`\r\n  /// @param _from The address of the sender\r\n  /// @param _to The address of the recipient\r\n  /// @param _value The amount of token to be transferred\r\n  /// @return Whether the transfer was successful or not\r\n  function transferFrom(address _from, address _to, uint256 _value) public returns (bool success) {}\r\n\r\n  /// @notice `msg.sender` approves `_addr` to spend `_value` tokens\r\n  /// @param _spender The address of the account able to transfer  tokens\r\n  /// @param _value The amount of wei to be approved for transferthe\r\n  /// @return Whether the approval was successful or not\r\n  function approve(address _spender, uint256 _value) public returns (bool success) {}\r\n\r\n  /// @param _owner The address of the account owning tokens\r\n  /// @param _spender The address of the account able to transfer the tokens\r\n  /// @return Amount of remaining tokens allowed to spent\r\n  function allowance(address _owner, address _spender) public view returns (uint256 remaining) {}\r\n\r\n  event Transfer(address indexed _from, address indexed _to, uint256 _value);\r\n  event Approval(address indexed _owner, address indexed _spender, uint256 _value);\r\n\r\n  uint public decimals;\r\n  string public name;\r\n}",
  "sourcePath": "C:\\Development\\TrustyPoll\\src\\contracts\\contracts\\Token.sol",
  "compiler": {
    "name": "solc",
    "version": "0.4.24+commit.e67f0147.Emscripten.clang"
  },
  "schemaVersion": "2.0.1",
  "updatedAt": "2018-07-14T12:42:31.149Z"
}