{
  "contractName": "TrustyPoll",
  "abi": [
    {
      "constant": true,
      "inputs": [],
      "name": "feeAccount",
      "outputs": [
        {
          "name": "",
          "type": "address"
        }
      ],
      "payable": false,
      "stateMutability": "view",
      "type": "function"
    },
    {
      "constant": true,
      "inputs": [
        {
          "name": "",
          "type": "uint256"
        }
      ],
      "name": "pollAuthors",
      "outputs": [
        {
          "name": "",
          "type": "address"
        }
      ],
      "payable": false,
      "stateMutability": "view",
      "type": "function"
    },
    {
      "constant": true,
      "inputs": [],
      "name": "tokenAddress",
      "outputs": [
        {
          "name": "",
          "type": "address"
        }
      ],
      "payable": false,
      "stateMutability": "view",
      "type": "function"
    },
    {
      "constant": true,
      "inputs": [
        {
          "name": "",
          "type": "uint256"
        }
      ],
      "name": "polls",
      "outputs": [
        {
          "name": "",
          "type": "bytes32"
        }
      ],
      "payable": false,
      "stateMutability": "view",
      "type": "function"
    },
    {
      "constant": true,
      "inputs": [
        {
          "name": "",
          "type": "uint256"
        },
        {
          "name": "",
          "type": "uint256"
        }
      ],
      "name": "pollVotesCount",
      "outputs": [
        {
          "name": "",
          "type": "uint256"
        }
      ],
      "payable": false,
      "stateMutability": "view",
      "type": "function"
    },
    {
      "constant": true,
      "inputs": [
        {
          "name": "",
          "type": "uint256"
        },
        {
          "name": "",
          "type": "address"
        }
      ],
      "name": "votes",
      "outputs": [
        {
          "name": "",
          "type": "uint256"
        }
      ],
      "payable": false,
      "stateMutability": "view",
      "type": "function"
    },
    {
      "constant": true,
      "inputs": [],
      "name": "fee",
      "outputs": [
        {
          "name": "",
          "type": "uint256"
        }
      ],
      "payable": false,
      "stateMutability": "view",
      "type": "function"
    },
    {
      "constant": true,
      "inputs": [
        {
          "name": "",
          "type": "uint256"
        },
        {
          "name": "",
          "type": "uint256"
        }
      ],
      "name": "pollOptions",
      "outputs": [
        {
          "name": "id",
          "type": "uint256"
        },
        {
          "name": "title",
          "type": "bytes32"
        }
      ],
      "payable": false,
      "stateMutability": "view",
      "type": "function"
    },
    {
      "constant": true,
      "inputs": [],
      "name": "admin",
      "outputs": [
        {
          "name": "",
          "type": "address"
        }
      ],
      "payable": false,
      "stateMutability": "view",
      "type": "function"
    },
    {
      "inputs": [
        {
          "name": "admin_",
          "type": "address"
        },
        {
          "name": "feeAccount_",
          "type": "address"
        },
        {
          "name": "tokenAddress_",
          "type": "address"
        },
        {
          "name": "fee_",
          "type": "uint256"
        }
      ],
      "payable": false,
      "stateMutability": "nonpayable",
      "type": "constructor"
    },
    {
      "constant": false,
      "inputs": [
        {
          "name": "admin_",
          "type": "address"
        }
      ],
      "name": "changeAdmin",
      "outputs": [],
      "payable": false,
      "stateMutability": "nonpayable",
      "type": "function"
    },
    {
      "constant": false,
      "inputs": [
        {
          "name": "feeAccount_",
          "type": "address"
        }
      ],
      "name": "changeFeeAccount",
      "outputs": [],
      "payable": false,
      "stateMutability": "nonpayable",
      "type": "function"
    },
    {
      "constant": false,
      "inputs": [
        {
          "name": "fee_",
          "type": "uint256"
        }
      ],
      "name": "changeFee",
      "outputs": [],
      "payable": false,
      "stateMutability": "nonpayable",
      "type": "function"
    },
    {
      "constant": false,
      "inputs": [
        {
          "name": "title",
          "type": "bytes32"
        }
      ],
      "name": "createPoll",
      "outputs": [],
      "payable": false,
      "stateMutability": "nonpayable",
      "type": "function"
    },
    {
      "constant": false,
      "inputs": [
        {
          "name": "poll",
          "type": "uint256"
        },
        {
          "name": "title",
          "type": "bytes32"
        }
      ],
      "name": "createOption",
      "outputs": [],
      "payable": false,
      "stateMutability": "nonpayable",
      "type": "function"
    },
    {
      "constant": false,
      "inputs": [
        {
          "name": "poll",
          "type": "uint256"
        },
        {
          "name": "option",
          "type": "uint256"
        }
      ],
      "name": "vote",
      "outputs": [],
      "payable": false,
      "stateMutability": "nonpayable",
      "type": "function"
    },
    {
      "constant": true,
      "inputs": [
        {
          "name": "poll",
          "type": "uint256"
        },
        {
          "name": "optionIndex",
          "type": "uint256"
        }
      ],
      "name": "getOptionTitleForPoll",
      "outputs": [
        {
          "name": "",
          "type": "bytes32"
        }
      ],
      "payable": false,
      "stateMutability": "view",
      "type": "function"
    },
    {
      "constant": true,
      "inputs": [
        {
          "name": "poll",
          "type": "uint256"
        },
        {
          "name": "optionIndex",
          "type": "uint256"
        }
      ],
      "name": "getOptionIdForPoll",
      "outputs": [
        {
          "name": "",
          "type": "uint256"
        }
      ],
      "payable": false,
      "stateMutability": "view",
      "type": "function"
    }
  ],
  "bytecode": "0x608060405234801561001057600080fd5b50604051608080610877833981016040908152815160208301519183015160609093015160008054600160a060020a03938416600160a060020a0319918216179091556001805494841694821694909417909355600280549290941691909216179091556003556107f1806100866000396000f3006080604052600436106100f05763ffffffff7c010000000000000000000000000000000000000000000000000000000060003504166365e17c9d81146100f55780636a1db1bf1461012657806371ffcb16146101405780637a51a61114610161578063839537251461018e5780638f283970146101a65780639d76ea58146101c7578063a54677e3146101dc578063ac2f0074146101f7578063b384abef1461020f578063b59a9c051461022a578063c6befedf14610245578063d23254b41461025d578063ddca3f4314610281578063ecf41c8c14610296578063f0114ad1146102b1578063f851a440146102e5575b600080fd5b34801561010157600080fd5b5061010a6102fa565b60408051600160a060020a039092168252519081900360200190f35b34801561013257600080fd5b5061013e600435610309565b005b34801561014c57600080fd5b5061013e600160a060020a0360043516610333565b34801561016d57600080fd5b5061017c600435602435610379565b60408051918252519081900360200190f35b34801561019a57600080fd5b5061010a6004356103ad565b3480156101b257600080fd5b5061013e600160a060020a03600435166103c8565b3480156101d357600080fd5b5061010a61040e565b3480156101e857600080fd5b5061017c60043560243561041d565b34801561020357600080fd5b5061017c600435610451565b34801561021b57600080fd5b5061013e600435602435610463565b34801561023657600080fd5b5061017c600435602435610576565b34801561025157600080fd5b5061013e600435610593565b34801561026957600080fd5b5061017c600435600160a060020a036024351661069b565b34801561028d57600080fd5b5061017c6106b8565b3480156102a257600080fd5b5061013e6004356024356106be565b3480156102bd57600080fd5b506102cc600435602435610745565b6040805192835260208301919091528051918290030190f35b3480156102f157600080fd5b5061010a610780565b600154600160a060020a031681565b600054600160a060020a0316331461032057600080fd5b600354811061032e57600080fd5b600355565b600054600160a060020a0316331461034a57600080fd5b6001805473ffffffffffffffffffffffffffffffffffffffff1916600160a060020a0392909216919091179055565b600082815260086020526040812080548390811061039357fe5b906000526020600020906002020160000154905092915050565b600960205260009081526040902054600160a060020a031681565b600054600160a060020a031633146103df57600080fd5b6000805473ffffffffffffffffffffffffffffffffffffffff1916600160a060020a0392909216919091179055565b600254600160a060020a031681565b600082815260086020526040812080548390811061043757fe5b906000526020600020906002020160010154905092915050565b600a6020526000908152604090205481565b600082815260096020526040902054600160a060020a031633141561048757600080fd5b6000811161049457600080fd5b600082116104a157600080fd5b60008281526006602090815260408083203384529091529020541561051e5760008281526007602090815260408083206006835281842033855283528184205484529091529020546104f490600161078f565b60008381526007602090815260408083206006835281842033855283528184205484529091529020555b60008281526007602090815260408083208484529091529020546105439060016107a1565b60008381526007602090815260408083208584528252808320939093559381526006845281812033825290935290912055565b600760209081526000928352604080842090915290825290205481565b80151561059f57600080fd5b600254600354604080517f23b872dd000000000000000000000000000000000000000000000000000000008152336004820152306024820152604481019290925251600160a060020a03909216916323b872dd916064808201926020929091908290030181600087803b15801561061557600080fd5b505af1158015610629573d6000803e3d6000fd5b505050506040513d602081101561063f57600080fd5b5051151561064c57600080fd5b61065960055460016107a1565b60058181556000918252600a6020908152604080842094909455905482526009905220805473ffffffffffffffffffffffffffffffffffffffff191633179055565b600660209081526000928352604080842090915290825290205481565b60035481565b8015156106ca57600080fd5b600082815260096020526040902054600160a060020a031633146106ed57600080fd5b6106fa60045460016107a1565b60048190556000928352600860209081526040808520815180830190925292815280820193845282546001818101855593865291909420935160029091029093019283559051910155565b60086020528160005260406000208181548110151561076057fe5b600091825260209091206002909102018054600190910154909250905082565b600054600160a060020a031681565b60008282111561079b57fe5b50900390565b60008282018381108015906107b65750828110155b15156107be57fe5b93925050505600a165627a7a7230582047cde6d03c8b4f8df8ef1e94b8d3b4e594fd5a4a0b4ab6491a2f8785c81920640029",
  "source": "pragma solidity ^0.4.23;\n\nimport { SafeMath } from './SafeMath.sol';\nimport { Token } from './Token.sol';\n\ncontract TrustyPoll is SafeMath {\n  address public admin; //the admin address\n  address public feeAccount; //the account that will receive fees\n  address public tokenAddress; // the address of the TRP Token\n  uint public fee; // fee for creating polls in TRP Tokens\n  uint private optionId;\n  uint private pollId;\n\n  constructor(address admin_, address feeAccount_, address tokenAddress_, uint fee_) public {\n    admin = admin_;\n    feeAccount = feeAccount_;\n    tokenAddress = tokenAddress_;\n    fee = fee_;\n  }\n  \n  struct Poll {\n      uint id;\n      bytes32 title;\n    }\n\n struct Option {\n      uint id;\n      bytes32 title;\n    }\n    \n    mapping(uint => mapping(address => uint)) public votes; //poll -> (user -> option)\n    mapping(uint => mapping(uint => uint)) public pollVotesCount; //poll -> (option -> votesCount)\n    mapping(uint => Option[]) public pollOptions; //poll -> options[]\n    mapping(uint => address) public pollAuthors; //poll -> author\n    mapping(uint => bytes32) public polls; // pollId -> pollTitle\n  \n  modifier onlyAdmin() {\n    require(msg.sender == admin);\n    _;\n  } \n\n  function changeAdmin(address admin_) onlyAdmin public {\n    admin = admin_;\n  }\n  \n  function changeFeeAccount(address feeAccount_) onlyAdmin public {\n    feeAccount = feeAccount_;\n  }  \n\n  function changeFee(uint fee_) onlyAdmin public {\n    require (fee_ < fee);\n    fee = fee_;\n  }\n  \n  function createPoll(bytes32 title) public {\n      require(title != '');\n\n    //ensure approve() method of TRP Token is called before creating poll or this contract will not be able to do the transfer on your behalf.\n    require(Token(tokenAddress).transferFrom(msg.sender, this, fee));\n\n      pollId = safeAdd(pollId, 1);\n      polls[pollId] = title;\n      pollAuthors[pollId] = msg.sender;\n  }\n  \n  function createOption(uint poll, bytes32 title) public {\n      require(title != '');\n      require(pollAuthors[poll] == msg.sender);\n      optionId  = safeAdd(optionId, 1);\n      pollOptions[poll].push(Option(optionId, title));\n  }\n  \n  function vote(uint poll, uint option) public {\n    require(pollAuthors[poll] != msg.sender); // authors cannot vote\n    require(option > 0);\n    require(poll > 0);\n    \n    // if user already vote, remove the old vote;\n    if (votes[poll][msg.sender] != 0) {\n      pollVotesCount[poll][votes[poll][msg.sender]] = safeSub(pollVotesCount[poll][votes[poll][msg.sender]], 1);\n    }\n    \n    pollVotesCount[poll][option] = safeAdd(pollVotesCount[poll][option], 1);\n    \n    // override previous response\n    votes[poll][msg.sender] = option;\n  }\n\n  function getOptionTitleForPoll(uint poll, uint optionIndex) public view returns(bytes32){\n       return pollOptions[poll][optionIndex].title;\n  }\n\n  function getOptionIdForPoll(uint poll, uint optionIndex) public view returns(uint){\n       return pollOptions[poll][optionIndex].id;\n  }\n}\n",
  "sourcePath": "C:\\Development\\TrustyPoll\\src\\contracts\\contracts\\TrustyPoll.sol",
  "compiler": {
    "name": "solc",
    "version": "0.4.24+commit.e67f0147.Emscripten.clang"
  },
  "schemaVersion": "2.0.1",
  "updatedAt": "2018-07-14T12:42:31.389Z"
}