{
  "contractName": "TrustyPoll",
  "abi": [
    {
      "constant": true,
      "inputs": [],
      "name": "feeAccount",
      "outputs": [
        {
          "name": "",
          "type": "address"
        }
      ],
      "payable": false,
      "stateMutability": "view",
      "type": "function"
    },
    {
      "constant": true,
      "inputs": [
        {
          "name": "",
          "type": "uint256"
        }
      ],
      "name": "pollAuthors",
      "outputs": [
        {
          "name": "",
          "type": "address"
        }
      ],
      "payable": false,
      "stateMutability": "view",
      "type": "function"
    },
    {
      "constant": true,
      "inputs": [
        {
          "name": "",
          "type": "uint256"
        }
      ],
      "name": "polls",
      "outputs": [
        {
          "name": "id",
          "type": "uint256"
        },
        {
          "name": "title",
          "type": "string"
        }
      ],
      "payable": false,
      "stateMutability": "view",
      "type": "function"
    },
    {
      "constant": true,
      "inputs": [
        {
          "name": "",
          "type": "uint256"
        },
        {
          "name": "",
          "type": "uint256"
        }
      ],
      "name": "pollVotesCount",
      "outputs": [
        {
          "name": "",
          "type": "uint256"
        }
      ],
      "payable": false,
      "stateMutability": "view",
      "type": "function"
    },
    {
      "constant": true,
      "inputs": [
        {
          "name": "",
          "type": "uint256"
        },
        {
          "name": "",
          "type": "address"
        }
      ],
      "name": "votes",
      "outputs": [
        {
          "name": "",
          "type": "uint256"
        }
      ],
      "payable": false,
      "stateMutability": "view",
      "type": "function"
    },
    {
      "constant": true,
      "inputs": [],
      "name": "fee",
      "outputs": [
        {
          "name": "",
          "type": "uint256"
        }
      ],
      "payable": false,
      "stateMutability": "view",
      "type": "function"
    },
    {
      "constant": true,
      "inputs": [
        {
          "name": "",
          "type": "uint256"
        },
        {
          "name": "",
          "type": "uint256"
        }
      ],
      "name": "pollOptions",
      "outputs": [
        {
          "name": "id",
          "type": "uint256"
        },
        {
          "name": "title",
          "type": "string"
        },
        {
          "name": "pollId",
          "type": "uint256"
        }
      ],
      "payable": false,
      "stateMutability": "view",
      "type": "function"
    },
    {
      "constant": true,
      "inputs": [],
      "name": "admin",
      "outputs": [
        {
          "name": "",
          "type": "address"
        }
      ],
      "payable": false,
      "stateMutability": "view",
      "type": "function"
    },
    {
      "inputs": [
        {
          "name": "admin_",
          "type": "address"
        },
        {
          "name": "feeAccount_",
          "type": "address"
        },
        {
          "name": "fee_",
          "type": "uint256"
        }
      ],
      "payable": false,
      "stateMutability": "nonpayable",
      "type": "constructor"
    },
    {
      "constant": false,
      "inputs": [
        {
          "name": "admin_",
          "type": "address"
        }
      ],
      "name": "changeAdmin",
      "outputs": [],
      "payable": false,
      "stateMutability": "nonpayable",
      "type": "function"
    },
    {
      "constant": false,
      "inputs": [
        {
          "name": "feeAccount_",
          "type": "address"
        }
      ],
      "name": "changeFeeAccount",
      "outputs": [],
      "payable": false,
      "stateMutability": "nonpayable",
      "type": "function"
    },
    {
      "constant": false,
      "inputs": [
        {
          "name": "fee_",
          "type": "uint256"
        }
      ],
      "name": "changeFee",
      "outputs": [],
      "payable": false,
      "stateMutability": "nonpayable",
      "type": "function"
    },
    {
      "constant": false,
      "inputs": [
        {
          "name": "title",
          "type": "string"
        }
      ],
      "name": "createPoll",
      "outputs": [],
      "payable": false,
      "stateMutability": "nonpayable",
      "type": "function"
    },
    {
      "constant": false,
      "inputs": [
        {
          "name": "poll",
          "type": "uint256"
        },
        {
          "name": "title",
          "type": "string"
        }
      ],
      "name": "createOption",
      "outputs": [],
      "payable": false,
      "stateMutability": "nonpayable",
      "type": "function"
    },
    {
      "constant": false,
      "inputs": [
        {
          "name": "poll",
          "type": "uint256"
        },
        {
          "name": "option",
          "type": "uint256"
        }
      ],
      "name": "vote",
      "outputs": [],
      "payable": false,
      "stateMutability": "nonpayable",
      "type": "function"
    }
  ],
  "bytecode": "0x608060405234801561001057600080fd5b50604051606080610aa583398101604090815281516020830151919092015160008054600160a060020a03948516600160a060020a03199182161790915560018054949093169316929092179055600255610a35806100706000396000f3006080604052600436106100cf5763ffffffff7c010000000000000000000000000000000000000000000000000000000060003504166310a2f7cb81146100d457806365e17c9d146101345780636a1db1bf1461016557806371ffcb161461017d57806374a9ced91461019e57806383953725146101f75780638f2839701461020f578063ac2f007414610230578063b384abef146102c7578063b59a9c05146102e2578063d23254b41461030f578063ddca3f4314610333578063f0114ad114610348578063f851a440146103e9575b600080fd5b3480156100e057600080fd5b5060408051602060046024803582810135601f81018590048502860185019096528585526101329583359536956044949193909101919081908401838280828437509497506103fe9650505050505050565b005b34801561014057600080fd5b506101496104a2565b60408051600160a060020a039092168252519081900360200190f35b34801561017157600080fd5b506101326004356104b1565b34801561018957600080fd5b50610132600160a060020a03600435166104db565b3480156101aa57600080fd5b506040805160206004803580820135601f81018490048402850184019095528484526101329436949293602493928401919081908401838280828437509497506105219650505050505050565b34801561020357600080fd5b506101496004356105f4565b34801561021b57600080fd5b50610132600160a060020a036004351661060f565b34801561023c57600080fd5b50610248600435610655565b6040518083815260200180602001828103825283818151815260200191508051906020019080838360005b8381101561028b578181015183820152602001610273565b50505050905090810190601f1680156102b85780820380516001836020036101000a031916815260200191505b50935050505060405180910390f35b3480156102d357600080fd5b5061013260043560243561070b565b3480156102ee57600080fd5b506102fd60043560243561081e565b60408051918252519081900360200190f35b34801561031b57600080fd5b506102fd600435600160a060020a036024351661083b565b34801561033f57600080fd5b506102fd610858565b34801561035457600080fd5b5061036360043560243561085e565b6040518084815260200180602001838152602001828103825284818151815260200191508051906020019080838360005b838110156103ac578181015183820152602001610394565b50505050905090810190601f1680156103d95780820380516001836020036101000a031916815260200191505b5094505050505060405180910390f35b3480156103f557600080fd5b50610149610929565b600082815260086020526040902054600160a060020a0316331461042157600080fd5b61042e6003546001610938565b60038181556000848152600760209081526040808320815160608101835295865285830187815291860188905280546001818101808455928652948490208751919096029095019485559051805191959493610490939085019291019061096e565b50604082015181600201555050505050565b600154600160a060020a031681565b600054600160a060020a031633146104c857600080fd5b60025481106104d657600080fd5b600255565b600054600160a060020a031633146104f257600080fd5b6001805473ffffffffffffffffffffffffffffffffffffffff1916600160a060020a0392909216919091179055565b61052e6004546001610938565b6004819055604080518082019091529081526020808201838152600980546001810180835560009290925284517f6e1540171b6c0c960b71a7020d9f60077f6af931a8bbf590da0223dacf75c7af6002909202918201908155925180519295946105bf937f6e1540171b6c0c960b71a7020d9f60077f6af931a8bbf590da0223dacf75c7b09093019291019061096e565b50506004546000908152600860205260409020805473ffffffffffffffffffffffffffffffffffffffff191633179055505050565b600860205260009081526040902054600160a060020a031681565b600054600160a060020a0316331461062657600080fd5b6000805473ffffffffffffffffffffffffffffffffffffffff1916600160a060020a0392909216919091179055565b600980548290811061066357fe5b60009182526020918290206002918202018054600180830180546040805193821615610100026000190190911695909504601f81018790048702830187019095528482529195509193919290918301828280156107015780601f106106d657610100808354040283529160200191610701565b820191906000526020600020905b8154815290600101906020018083116106e457829003601f168201915b5050505050905082565b600082815260086020526040902054600160a060020a031633141561072f57600080fd5b6000811161073c57600080fd5b6000821161074957600080fd5b6000828152600560209081526040808320338452909152902054156107c657600082815260066020908152604080832060058352818420338552835281842054845290915290205461079c90600161095c565b60008381526006602090815260408083206005835281842033855283528184205484529091529020555b60008281526006602090815260408083208484529091529020546107eb906001610938565b60008381526006602090815260408083208584528252808320939093559381526005845281812033825290935290912055565b600660209081526000928352604080842090915290825290205481565b600560209081526000928352604080842090915290825290205481565b60025481565b60076020528160005260406000208181548110151561087957fe5b60009182526020918290206003919091020180546001808301805460408051600294831615610100026000190190921693909304601f810187900487028201870190935282815292965092945090928301828280156109195780601f106108ee57610100808354040283529160200191610919565b820191906000526020600020905b8154815290600101906020018083116108fc57829003601f168201915b5050505050908060020154905083565b600054600160a060020a031681565b600082820183811080159061094d5750828110155b151561095557fe5b9392505050565b60008282111561096857fe5b50900390565b828054600181600116156101000203166002900490600052602060002090601f016020900481019282601f106109af57805160ff19168380011785556109dc565b828001600101855582156109dc579182015b828111156109dc5782518255916020019190600101906109c1565b506109e89291506109ec565b5090565b610a0691905b808211156109e857600081556001016109f2565b905600a165627a7a723058200931fc91ad573d7e6d5e96eb6ad3d900565091d89608e0c57fda9d6008a976af0029",
  "source": "pragma solidity ^0.4.23;\n\ncontract SafeMath {\n  function safeMul(uint a, uint b) internal pure returns (uint) {\n    uint c = a * b;\n    assert(a == 0 || c / a == b);\n    return c;\n  }\n\n  function safeSub(uint a, uint b) internal pure returns (uint) {\n    assert(b <= a);\n    return a - b;\n  }\n\n  function safeAdd(uint a, uint b) internal pure returns (uint) {\n    uint c = a + b;\n    assert(c>=a && c>=b);\n    return c;\n  }\n}\n\ncontract TrustyPoll is SafeMath {\n  address public admin; //the admin address\n  address public feeAccount; //the account that will receive fees\n  uint public fee;\n  uint private optionId;\n  uint private pollId;\n\n  constructor(address admin_, address feeAccount_, uint fee_) public {\n    admin = admin_;\n    feeAccount = feeAccount_;\n    fee = fee_;\n  }\n  \n  struct Poll {\n      uint id;\n      string title;\n    }\n\n struct Option {\n      uint id;\n      string title;\n      uint pollId;\n    }\n    \n    mapping(uint => mapping(address => uint)) public votes; //(poll -> (user -> option)\n    mapping(uint => mapping(uint => uint)) public pollVotesCount; //(poll -> (option -> votesCount)\n    mapping(uint => Option[]) public pollOptions; //(poll -> (user -> option)\n    mapping(uint => address) public pollAuthors; //(poll -> (user -> option)\n    Poll[] public polls;\n  \n  modifier onlyAdmin() {\n    require(msg.sender == admin);\n    _;\n  } \n\n  function changeAdmin(address admin_) onlyAdmin public {\n    admin = admin_;\n  }\n  \n  function changeFeeAccount(address feeAccount_) onlyAdmin public {\n    feeAccount = feeAccount_;\n  }  \n\n  function changeFee(uint fee_) onlyAdmin public {\n    require (fee_ < fee);\n    fee = fee_;\n  }\n  \n  function createPoll(string title) public {\n      pollId = safeAdd(pollId, 1);\n      polls.push(Poll(pollId, title));\n      pollAuthors[pollId] = msg.sender;\n  }\n  \n  function createOption(uint poll, string title) public {\n      require(pollAuthors[poll] == msg.sender);\n      optionId  = safeAdd(optionId, 1);\n      pollOptions[poll].push(Option(optionId, title, poll));\n  }\n  \n  function vote (uint poll, uint option) public {\n    require(pollAuthors[poll] != msg.sender); // authors cannot vote\n    require(option > 0);\n    require(poll > 0);\n    \n    // if user already vote, remove the old vote;\n    if (votes[poll][msg.sender] != 0) {\n      pollVotesCount[poll][votes[poll][msg.sender]] = safeSub(pollVotesCount[poll][votes[poll][msg.sender]], 1);\n    }\n    \n    pollVotesCount[poll][option] = safeAdd(pollVotesCount[poll][option], 1);\n    \n    // override previous response\n    votes[poll][msg.sender] = option;\n  }\n}\n",
  "sourcePath": "C:\\Development\\TrustyPoll\\src\\contracts\\contracts\\TrustyPoll.sol",
  "compiler": {
    "name": "solc",
    "version": "0.4.24+commit.e67f0147.Emscripten.clang"
  },
  "schemaVersion": "2.0.1",
  "updatedAt": "2018-07-08T15:51:01.292Z"
}